{
  "_format": "hh-sol-artifact-1",
  "contractName": "coinContract",
  "sourceName": "contracts/coinContract.sol",
  "abi": [
    {
      "inputs": [
        {
          "internalType": "address",
          "name": "_nftContract",
          "type": "address"
        }
      ],
      "stateMutability": "nonpayable",
      "type": "constructor"
    },
    {
      "anonymous": false,
      "inputs": [
        {
          "indexed": true,
          "internalType": "address",
          "name": "owner",
          "type": "address"
        },
        {
          "indexed": true,
          "internalType": "address",
          "name": "spender",
          "type": "address"
        },
        {
          "indexed": false,
          "internalType": "uint256",
          "name": "value",
          "type": "uint256"
        }
      ],
      "name": "Approval",
      "type": "event"
    },
    {
      "anonymous": false,
      "inputs": [
        {
          "indexed": true,
          "internalType": "address",
          "name": "previousOwner",
          "type": "address"
        },
        {
          "indexed": true,
          "internalType": "address",
          "name": "newOwner",
          "type": "address"
        }
      ],
      "name": "OwnershipTransferred",
      "type": "event"
    },
    {
      "anonymous": false,
      "inputs": [
        {
          "indexed": true,
          "internalType": "address",
          "name": "from",
          "type": "address"
        },
        {
          "indexed": true,
          "internalType": "address",
          "name": "to",
          "type": "address"
        },
        {
          "indexed": false,
          "internalType": "uint256",
          "name": "value",
          "type": "uint256"
        }
      ],
      "name": "Transfer",
      "type": "event"
    },
    {
      "stateMutability": "payable",
      "type": "fallback"
    },
    {
      "inputs": [
        {
          "internalType": "address",
          "name": "owner",
          "type": "address"
        },
        {
          "internalType": "address",
          "name": "spender",
          "type": "address"
        }
      ],
      "name": "allowance",
      "outputs": [
        {
          "internalType": "uint256",
          "name": "",
          "type": "uint256"
        }
      ],
      "stateMutability": "view",
      "type": "function"
    },
    {
      "inputs": [
        {
          "internalType": "address",
          "name": "spender",
          "type": "address"
        },
        {
          "internalType": "uint256",
          "name": "amount",
          "type": "uint256"
        }
      ],
      "name": "approve",
      "outputs": [
        {
          "internalType": "bool",
          "name": "",
          "type": "bool"
        }
      ],
      "stateMutability": "nonpayable",
      "type": "function"
    },
    {
      "inputs": [
        {
          "internalType": "address",
          "name": "account",
          "type": "address"
        }
      ],
      "name": "balanceOf",
      "outputs": [
        {
          "internalType": "uint256",
          "name": "",
          "type": "uint256"
        }
      ],
      "stateMutability": "view",
      "type": "function"
    },
    {
      "inputs": [],
      "name": "burnTokens",
      "outputs": [],
      "stateMutability": "nonpayable",
      "type": "function"
    },
    {
      "inputs": [
        {
          "internalType": "uint256",
          "name": "amount",
          "type": "uint256"
        }
      ],
      "name": "buyToken",
      "outputs": [],
      "stateMutability": "payable",
      "type": "function"
    },
    {
      "inputs": [],
      "name": "contestWins",
      "outputs": [],
      "stateMutability": "nonpayable",
      "type": "function"
    },
    {
      "inputs": [],
      "name": "decimals",
      "outputs": [
        {
          "internalType": "uint8",
          "name": "",
          "type": "uint8"
        }
      ],
      "stateMutability": "view",
      "type": "function"
    },
    {
      "inputs": [
        {
          "internalType": "address",
          "name": "spender",
          "type": "address"
        },
        {
          "internalType": "uint256",
          "name": "subtractedValue",
          "type": "uint256"
        }
      ],
      "name": "decreaseAllowance",
      "outputs": [
        {
          "internalType": "bool",
          "name": "",
          "type": "bool"
        }
      ],
      "stateMutability": "nonpayable",
      "type": "function"
    },
    {
      "inputs": [
        {
          "internalType": "address",
          "name": "spender",
          "type": "address"
        },
        {
          "internalType": "uint256",
          "name": "addedValue",
          "type": "uint256"
        }
      ],
      "name": "increaseAllowance",
      "outputs": [
        {
          "internalType": "bool",
          "name": "",
          "type": "bool"
        }
      ],
      "stateMutability": "nonpayable",
      "type": "function"
    },
    {
      "inputs": [],
      "name": "joinPremium",
      "outputs": [],
      "stateMutability": "payable",
      "type": "function"
    },
    {
      "inputs": [],
      "name": "maxTotalSupply",
      "outputs": [
        {
          "internalType": "uint256",
          "name": "",
          "type": "uint256"
        }
      ],
      "stateMutability": "view",
      "type": "function"
    },
    {
      "inputs": [],
      "name": "name",
      "outputs": [
        {
          "internalType": "string",
          "name": "",
          "type": "string"
        }
      ],
      "stateMutability": "view",
      "type": "function"
    },
    {
      "inputs": [],
      "name": "owner",
      "outputs": [
        {
          "internalType": "address",
          "name": "",
          "type": "address"
        }
      ],
      "stateMutability": "view",
      "type": "function"
    },
    {
      "inputs": [],
      "name": "owns",
      "outputs": [
        {
          "internalType": "address",
          "name": "",
          "type": "address"
        }
      ],
      "stateMutability": "view",
      "type": "function"
    },
    {
      "inputs": [],
      "name": "premiumPrice",
      "outputs": [
        {
          "internalType": "uint256",
          "name": "",
          "type": "uint256"
        }
      ],
      "stateMutability": "view",
      "type": "function"
    },
    {
      "inputs": [],
      "name": "problemSolved",
      "outputs": [],
      "stateMutability": "nonpayable",
      "type": "function"
    },
    {
      "inputs": [],
      "name": "quizEnded",
      "outputs": [
        {
          "internalType": "uint256",
          "name": "",
          "type": "uint256"
        }
      ],
      "stateMutability": "view",
      "type": "function"
    },
    {
      "inputs": [],
      "name": "quizStarted",
      "outputs": [
        {
          "internalType": "bool",
          "name": "",
          "type": "bool"
        }
      ],
      "stateMutability": "view",
      "type": "function"
    },
    {
      "inputs": [],
      "name": "renounceOwnership",
      "outputs": [],
      "stateMutability": "nonpayable",
      "type": "function"
    },
    {
      "inputs": [],
      "name": "sendQuizReward",
      "outputs": [],
      "stateMutability": "nonpayable",
      "type": "function"
    },
    {
      "inputs": [],
      "name": "signInReward",
      "outputs": [],
      "stateMutability": "nonpayable",
      "type": "function"
    },
    {
      "inputs": [],
      "name": "startQuiz",
      "outputs": [],
      "stateMutability": "nonpayable",
      "type": "function"
    },
    {
      "inputs": [],
      "name": "symbol",
      "outputs": [
        {
          "internalType": "string",
          "name": "",
          "type": "string"
        }
      ],
      "stateMutability": "view",
      "type": "function"
    },
    {
      "inputs": [],
      "name": "tokenPrice",
      "outputs": [
        {
          "internalType": "uint256",
          "name": "",
          "type": "uint256"
        }
      ],
      "stateMutability": "view",
      "type": "function"
    },
    {
      "inputs": [],
      "name": "totalSupply",
      "outputs": [
        {
          "internalType": "uint256",
          "name": "",
          "type": "uint256"
        }
      ],
      "stateMutability": "view",
      "type": "function"
    },
    {
      "inputs": [
        {
          "internalType": "address",
          "name": "to",
          "type": "address"
        },
        {
          "internalType": "uint256",
          "name": "amount",
          "type": "uint256"
        }
      ],
      "name": "transfer",
      "outputs": [
        {
          "internalType": "bool",
          "name": "",
          "type": "bool"
        }
      ],
      "stateMutability": "nonpayable",
      "type": "function"
    },
    {
      "inputs": [
        {
          "internalType": "address",
          "name": "from",
          "type": "address"
        },
        {
          "internalType": "address",
          "name": "to",
          "type": "address"
        },
        {
          "internalType": "uint256",
          "name": "amount",
          "type": "uint256"
        }
      ],
      "name": "transferFrom",
      "outputs": [
        {
          "internalType": "bool",
          "name": "",
          "type": "bool"
        }
      ],
      "stateMutability": "nonpayable",
      "type": "function"
    },
    {
      "inputs": [
        {
          "internalType": "address",
          "name": "newOwner",
          "type": "address"
        }
      ],
      "name": "transferOwnership",
      "outputs": [],
      "stateMutability": "nonpayable",
      "type": "function"
    },
    {
      "stateMutability": "payable",
      "type": "receive"
    }
  ],
  "bytecode": "0x60806040526000600b553480156200001657600080fd5b5060405162002e2f38038062002e2f83398181016040528101906200003c919062000465565b6040518060400160405280600581526020017f4d756472610000000000000000000000000000000000000000000000000000008152506040518060400160405280600381526020017f4d445200000000000000000000000000000000000000000000000000000000008152508160039081620000b9919062000711565b508060049081620000cb919062000711565b505050620000ee620000e2620001b660201b60201c565b620001be60201b60201c565b33600660006101000a81548173ffffffffffffffffffffffffffffffffffffffff021916908373ffffffffffffffffffffffffffffffffffffffff16021790555080600760006101000a81548173ffffffffffffffffffffffffffffffffffffffff021916908373ffffffffffffffffffffffffffffffffffffffff160217905550620001af600660009054906101000a900473ffffffffffffffffffffffffffffffffffffffff166a0ac0db698068112d0000006200028460201b60201c565b5062000913565b600033905090565b6000600560009054906101000a900473ffffffffffffffffffffffffffffffffffffffff16905081600560006101000a81548173ffffffffffffffffffffffffffffffffffffffff021916908373ffffffffffffffffffffffffffffffffffffffff1602179055508173ffffffffffffffffffffffffffffffffffffffff168173ffffffffffffffffffffffffffffffffffffffff167f8be0079c531659141344cd1fd0a4f28419497f9722a3daafe3b4186f6b6457e060405160405180910390a35050565b600073ffffffffffffffffffffffffffffffffffffffff168273ffffffffffffffffffffffffffffffffffffffff1603620002f6576040517f08c379a0000000000000000000000000000000000000000000000000000000008152600401620002ed9062000859565b60405180910390fd5b6200030a60008383620003f160201b60201c565b80600260008282546200031e9190620008aa565b92505081905550806000808473ffffffffffffffffffffffffffffffffffffffff1673ffffffffffffffffffffffffffffffffffffffff168152602001908152602001600020600082825401925050819055508173ffffffffffffffffffffffffffffffffffffffff16600073ffffffffffffffffffffffffffffffffffffffff167fddf252ad1be2c89b69c2b068fc378daa952ba7f163c4a11628f55a4df523b3ef83604051620003d19190620008f6565b60405180910390a3620003ed60008383620003f660201b60201c565b5050565b505050565b505050565b600080fd5b600073ffffffffffffffffffffffffffffffffffffffff82169050919050565b60006200042d8262000400565b9050919050565b6200043f8162000420565b81146200044b57600080fd5b50565b6000815190506200045f8162000434565b92915050565b6000602082840312156200047e576200047d620003fb565b5b60006200048e848285016200044e565b91505092915050565b600081519050919050565b7f4e487b7100000000000000000000000000000000000000000000000000000000600052604160045260246000fd5b7f4e487b7100000000000000000000000000000000000000000000000000000000600052602260045260246000fd5b600060028204905060018216806200051957607f821691505b6020821081036200052f576200052e620004d1565b5b50919050565b60008190508160005260206000209050919050565b60006020601f8301049050919050565b600082821b905092915050565b600060088302620005997fffffffffffffffffffffffffffffffffffffffffffffffffffffffffffffffff826200055a565b620005a586836200055a565b95508019841693508086168417925050509392505050565b6000819050919050565b6000819050919050565b6000620005f2620005ec620005e684620005bd565b620005c7565b620005bd565b9050919050565b6000819050919050565b6200060e83620005d1565b620006266200061d82620005f9565b84845462000567565b825550505050565b600090565b6200063d6200062e565b6200064a81848462000603565b505050565b5b8181101562000672576200066660008262000633565b60018101905062000650565b5050565b601f821115620006c1576200068b8162000535565b62000696846200054a565b81016020851015620006a6578190505b620006be620006b5856200054a565b8301826200064f565b50505b505050565b600082821c905092915050565b6000620006e660001984600802620006c6565b1980831691505092915050565b6000620007018383620006d3565b9150826002028217905092915050565b6200071c8262000497565b67ffffffffffffffff811115620007385762000737620004a2565b5b62000744825462000500565b6200075182828562000676565b600060209050601f83116001811462000789576000841562000774578287015190505b620007808582620006f3565b865550620007f0565b601f198416620007998662000535565b60005b82811015620007c3578489015182556001820191506020850194506020810190506200079c565b86831015620007e35784890151620007df601f891682620006d3565b8355505b6001600288020188555050505b505050505050565b600082825260208201905092915050565b7f45524332303a206d696e7420746f20746865207a65726f206164647265737300600082015250565b600062000841601f83620007f8565b91506200084e8262000809565b602082019050919050565b60006020820190508181036000830152620008748162000832565b9050919050565b7f4e487b7100000000000000000000000000000000000000000000000000000000600052601160045260246000fd5b6000620008b782620005bd565b9150620008c483620005bd565b9250828201905080821115620008df57620008de6200087b565b5b92915050565b620008f081620005bd565b82525050565b60006020820190506200090d6000830184620008e5565b92915050565b61250c80620009236000396000f3fe6080604052600436106101bb5760003560e01c8063619d1775116100ec5780639aa482561161008a578063cec1b71011610064578063cec1b7101461059d578063d8f41b1a146105c8578063dd62ed3e146105d2578063f2fde38b1461060f576101c2565b80639aa482561461050c578063a457c2d714610523578063a9059cbb14610560576101c2565b8063715018a6116100c6578063715018a6146104745780637ff9b5961461048b5780638da5cb5b146104b657806395d89b41146104e1576101c2565b8063619d1775146103e157806368a8bf5b1461040c57806370a0823114610437576101c2565b80632ab4d05211610159578063313ce56711610133578063313ce5671461034b57806339509351146103765780634c3415e6146103b35780635cba6244146103ca576101c2565b80632ab4d052146102d95780632d296bf11461030457806330654e1314610320576101c2565b8063095ea7b311610195578063095ea7b31461021d57806318160ddd1461025a57806323b872dd14610285578063296fcc11146102c2576101c2565b8063028e68ce146101c457806306fdde03146101db57806308003f7814610206576101c2565b366101c257005b005b3480156101d057600080fd5b506101d9610638565b005b3480156101e757600080fd5b506101f061066b565b6040516101fd9190611958565b60405180910390f35b34801561021257600080fd5b5061021b6106fd565b005b34801561022957600080fd5b50610244600480360381019061023f9190611a13565b61073d565b6040516102519190611a6e565b60405180910390f35b34801561026657600080fd5b5061026f610760565b60405161027c9190611a98565b60405180910390f35b34801561029157600080fd5b506102ac60048036038101906102a79190611ab3565b61076a565b6040516102b99190611a6e565b60405180910390f35b3480156102ce57600080fd5b506102d7610799565b005b3480156102e557600080fd5b506102ee61084e565b6040516102fb9190611a98565b60405180910390f35b61031e60048036038101906103199190611b06565b61085d565b005b34801561032c57600080fd5b5061033561096c565b6040516103429190611a98565b60405180910390f35b34801561035757600080fd5b50610360610977565b60405161036d9190611b4f565b60405180910390f35b34801561038257600080fd5b5061039d60048036038101906103989190611a13565b610980565b6040516103aa9190611a6e565b60405180910390f35b3480156103bf57600080fd5b506103c86109b7565b005b3480156103d657600080fd5b506103df6109f0565b005b3480156103ed57600080fd5b506103f6610b06565b6040516104039190611a6e565b60405180910390f35b34801561041857600080fd5b50610421610b19565b60405161042e9190611a98565b60405180910390f35b34801561044357600080fd5b5061045e60048036038101906104599190611b6a565b610b1f565b60405161046b9190611a98565b60405180910390f35b34801561048057600080fd5b50610489610b67565b005b34801561049757600080fd5b506104a0610b7b565b6040516104ad9190611a98565b60405180910390f35b3480156104c257600080fd5b506104cb610b85565b6040516104d89190611ba6565b60405180910390f35b3480156104ed57600080fd5b506104f6610baf565b6040516105039190611958565b60405180910390f35b34801561051857600080fd5b50610521610c41565b005b34801561052f57600080fd5b5061054a60048036038101906105459190611a13565b610cf6565b6040516105579190611a6e565b60405180910390f35b34801561056c57600080fd5b5061058760048036038101906105829190611a13565b610d6d565b6040516105949190611a6e565b60405180910390f35b3480156105a957600080fd5b506105b2610d90565b6040516105bf9190611ba6565b60405180910390f35b6105d0610db6565b005b3480156105de57600080fd5b506105f960048036038101906105f49190611bc1565b610e7a565b6040516106069190611a98565b60405180910390f35b34801561061b57600080fd5b5061063660048036038101906106319190611b6a565b610f01565b005b61064933666a94d74f430000610f84565b666a94d74f430000600b60008282546106629190611c30565b92505081905550565b60606003805461067a90611c93565b80601f01602080910402602001604051908101604052809291908181526020018280546106a690611c93565b80156106f35780601f106106c8576101008083540402835291602001916106f3565b820191906000526020600020905b8154815290600101906020018083116106d657829003601f168201915b5050505050905090565b6107056110da565b610733600660009054906101000a900473ffffffffffffffffffffffffffffffffffffffff16600b54611158565b6000600b81905550565b600080610748611325565b905061075581858561132d565b600191505092915050565b6000600254905090565b600080610775611325565b90506107828582856114f6565b61078d858585611582565b60019150509392505050565b600760009054906101000a900473ffffffffffffffffffffffffffffffffffffffff1673ffffffffffffffffffffffffffffffffffffffff16635e7f92356040518163ffffffff1660e01b8152600401600060405180830381600087803b15801561080357600080fd5b505af1158015610817573d6000803e3d6000fd5b5050505061082c3366038d7ea4c68000610f84565b66038d7ea4c68000600b60008282546108459190611c30565b92505081905550565b6a0ac0db698068112d00000081565b60008165048c273950006108719190611cc4565b9050803410156108b6576040517f08c379a00000000000000000000000000000000000000000000000000000000081526004016108ad90611d52565b60405180910390fd5b6000670de0b6b3a7640000836108cc9190611cc4565b90506a0ac0db698068112d000000816108e3610760565b6108ed9190611c30565b111561092e576040517f08c379a000000000000000000000000000000000000000000000000000000000815260040161092590611de4565b60405180910390fd5b610938338261073d565b50610966600660009054906101000a900473ffffffffffffffffffffffffffffffffffffffff16338361076a565b50505050565b6698c445ad57800081565b60006012905090565b60008061098b611325565b90506109ac81858561099d8589610e7a565b6109a79190611c30565b61132d565b600191505092915050565b6109bf6110da565b6001600760146101000a81548160ff02191690831515021790555061012c426109e89190611c30565b600881905550565b60001515600960003373ffffffffffffffffffffffffffffffffffffffff1673ffffffffffffffffffffffffffffffffffffffff16815260200190815260200160002060009054906101000a900460ff16151514610a83576040517f08c379a0000000000000000000000000000000000000000000000000000000008152600401610a7a90611e50565b60405180910390fd5b610a943366354a6ba7a18000610f84565b66038d7ea4c68000600b6000828254610aad9190611c30565b9250508190555060011515600960003373ffffffffffffffffffffffffffffffffffffffff1673ffffffffffffffffffffffffffffffffffffffff16815260200190815260200160002060009054906101000a90505050565b600760149054906101000a900460ff1681565b60085481565b60008060008373ffffffffffffffffffffffffffffffffffffffff1673ffffffffffffffffffffffffffffffffffffffff168152602001908152602001600020549050919050565b610b6f6110da565b610b7960006117f8565b565b65048c2739500081565b6000600560009054906101000a900473ffffffffffffffffffffffffffffffffffffffff16905090565b606060048054610bbe90611c93565b80601f0160208091040260200160405190810160405280929190818152602001828054610bea90611c93565b8015610c375780601f10610c0c57610100808354040283529160200191610c37565b820191906000526020600020905b815481529060010190602001808311610c1a57829003601f168201915b5050505050905090565b600760009054906101000a900473ffffffffffffffffffffffffffffffffffffffff1673ffffffffffffffffffffffffffffffffffffffff166305d9d04c6040518163ffffffff1660e01b8152600401600060405180830381600087803b158015610cab57600080fd5b505af1158015610cbf573d6000803e3d6000fd5b50505050610cd43366354a6ba7a18000610f84565b66354a6ba7a18000600b6000828254610ced9190611c30565b92505081905550565b600080610d01611325565b90506000610d0f8286610e7a565b905083811015610d54576040517f08c379a0000000000000000000000000000000000000000000000000000000008152600401610d4b90611ee2565b60405180910390fd5b610d61828686840361132d565b60019250505092915050565b600080610d78611325565b9050610d85818585611582565b600191505092915050565b600660009054906101000a900473ffffffffffffffffffffffffffffffffffffffff1681565b6698c445ad5780003414610dc957600080fd5b600a60003373ffffffffffffffffffffffffffffffffffffffff1673ffffffffffffffffffffffffffffffffffffffff16815260200190815260200160002060009054906101000a900460ff1615610e2057600080fd5b6001600a60003373ffffffffffffffffffffffffffffffffffffffff1673ffffffffffffffffffffffffffffffffffffffff16815260200190815260200160002060006101000a81548160ff021916908315150217905550565b6000600160008473ffffffffffffffffffffffffffffffffffffffff1673ffffffffffffffffffffffffffffffffffffffff16815260200190815260200160002060008373ffffffffffffffffffffffffffffffffffffffff1673ffffffffffffffffffffffffffffffffffffffff16815260200190815260200160002054905092915050565b610f096110da565b600073ffffffffffffffffffffffffffffffffffffffff168173ffffffffffffffffffffffffffffffffffffffff1603610f78576040517f08c379a0000000000000000000000000000000000000000000000000000000008152600401610f6f90611f74565b60405180910390fd5b610f81816117f8565b50565b600073ffffffffffffffffffffffffffffffffffffffff168273ffffffffffffffffffffffffffffffffffffffff1603610ff3576040517f08c379a0000000000000000000000000000000000000000000000000000000008152600401610fea90611fe0565b60405180910390fd5b610fff600083836118be565b80600260008282546110119190611c30565b92505081905550806000808473ffffffffffffffffffffffffffffffffffffffff1673ffffffffffffffffffffffffffffffffffffffff168152602001908152602001600020600082825401925050819055508173ffffffffffffffffffffffffffffffffffffffff16600073ffffffffffffffffffffffffffffffffffffffff167fddf252ad1be2c89b69c2b068fc378daa952ba7f163c4a11628f55a4df523b3ef836040516110c29190611a98565b60405180910390a36110d6600083836118c3565b5050565b6110e2611325565b73ffffffffffffffffffffffffffffffffffffffff16611100610b85565b73ffffffffffffffffffffffffffffffffffffffff1614611156576040517f08c379a000000000000000000000000000000000000000000000000000000000815260040161114d9061204c565b60405180910390fd5b565b600073ffffffffffffffffffffffffffffffffffffffff168273ffffffffffffffffffffffffffffffffffffffff16036111c7576040517f08c379a00000000000000000000000000000000000000000000000000000000081526004016111be906120de565b60405180910390fd5b6111d3826000836118be565b60008060008473ffffffffffffffffffffffffffffffffffffffff1673ffffffffffffffffffffffffffffffffffffffff16815260200190815260200160002054905081811015611259576040517f08c379a000000000000000000000000000000000000000000000000000000000815260040161125090612170565b60405180910390fd5b8181036000808573ffffffffffffffffffffffffffffffffffffffff1673ffffffffffffffffffffffffffffffffffffffff1681526020019081526020016000208190555081600260008282540392505081905550600073ffffffffffffffffffffffffffffffffffffffff168373ffffffffffffffffffffffffffffffffffffffff167fddf252ad1be2c89b69c2b068fc378daa952ba7f163c4a11628f55a4df523b3ef8460405161130c9190611a98565b60405180910390a3611320836000846118c3565b505050565b600033905090565b600073ffffffffffffffffffffffffffffffffffffffff168373ffffffffffffffffffffffffffffffffffffffff160361139c576040517f08c379a000000000000000000000000000000000000000000000000000000000815260040161139390612202565b60405180910390fd5b600073ffffffffffffffffffffffffffffffffffffffff168273ffffffffffffffffffffffffffffffffffffffff160361140b576040517f08c379a000000000000000000000000000000000000000000000000000000000815260040161140290612294565b60405180910390fd5b80600160008573ffffffffffffffffffffffffffffffffffffffff1673ffffffffffffffffffffffffffffffffffffffff16815260200190815260200160002060008473ffffffffffffffffffffffffffffffffffffffff1673ffffffffffffffffffffffffffffffffffffffff168152602001908152602001600020819055508173ffffffffffffffffffffffffffffffffffffffff168373ffffffffffffffffffffffffffffffffffffffff167f8c5be1e5ebec7d5bd14f71427d1e84f3dd0314c0f7b2291e5b200ac8c7c3b925836040516114e99190611a98565b60405180910390a3505050565b60006115028484610e7a565b90507fffffffffffffffffffffffffffffffffffffffffffffffffffffffffffffffff811461157c578181101561156e576040517f08c379a000000000000000000000000000000000000000000000000000000000815260040161156590612300565b60405180910390fd5b61157b848484840361132d565b5b50505050565b600073ffffffffffffffffffffffffffffffffffffffff168373ffffffffffffffffffffffffffffffffffffffff16036115f1576040517f08c379a00000000000000000000000000000000000000000000000000000000081526004016115e890612392565b60405180910390fd5b600073ffffffffffffffffffffffffffffffffffffffff168273ffffffffffffffffffffffffffffffffffffffff1603611660576040517f08c379a000000000000000000000000000000000000000000000000000000000815260040161165790612424565b60405180910390fd5b61166b8383836118be565b60008060008573ffffffffffffffffffffffffffffffffffffffff1673ffffffffffffffffffffffffffffffffffffffff168152602001908152602001600020549050818110156116f1576040517f08c379a00000000000000000000000000000000000000000000000000000000081526004016116e8906124b6565b60405180910390fd5b8181036000808673ffffffffffffffffffffffffffffffffffffffff1673ffffffffffffffffffffffffffffffffffffffff16815260200190815260200160002081905550816000808573ffffffffffffffffffffffffffffffffffffffff1673ffffffffffffffffffffffffffffffffffffffff168152602001908152602001600020600082825401925050819055508273ffffffffffffffffffffffffffffffffffffffff168473ffffffffffffffffffffffffffffffffffffffff167fddf252ad1be2c89b69c2b068fc378daa952ba7f163c4a11628f55a4df523b3ef846040516117df9190611a98565b60405180910390a36117f28484846118c3565b50505050565b6000600560009054906101000a900473ffffffffffffffffffffffffffffffffffffffff16905081600560006101000a81548173ffffffffffffffffffffffffffffffffffffffff021916908373ffffffffffffffffffffffffffffffffffffffff1602179055508173ffffffffffffffffffffffffffffffffffffffff168173ffffffffffffffffffffffffffffffffffffffff167f8be0079c531659141344cd1fd0a4f28419497f9722a3daafe3b4186f6b6457e060405160405180910390a35050565b505050565b505050565b600081519050919050565b600082825260208201905092915050565b60005b838110156119025780820151818401526020810190506118e7565b60008484015250505050565b6000601f19601f8301169050919050565b600061192a826118c8565b61193481856118d3565b93506119448185602086016118e4565b61194d8161190e565b840191505092915050565b60006020820190508181036000830152611972818461191f565b905092915050565b600080fd5b600073ffffffffffffffffffffffffffffffffffffffff82169050919050565b60006119aa8261197f565b9050919050565b6119ba8161199f565b81146119c557600080fd5b50565b6000813590506119d7816119b1565b92915050565b6000819050919050565b6119f0816119dd565b81146119fb57600080fd5b50565b600081359050611a0d816119e7565b92915050565b60008060408385031215611a2a57611a2961197a565b5b6000611a38858286016119c8565b9250506020611a49858286016119fe565b9150509250929050565b60008115159050919050565b611a6881611a53565b82525050565b6000602082019050611a836000830184611a5f565b92915050565b611a92816119dd565b82525050565b6000602082019050611aad6000830184611a89565b92915050565b600080600060608486031215611acc57611acb61197a565b5b6000611ada868287016119c8565b9350506020611aeb868287016119c8565b9250506040611afc868287016119fe565b9150509250925092565b600060208284031215611b1c57611b1b61197a565b5b6000611b2a848285016119fe565b91505092915050565b600060ff82169050919050565b611b4981611b33565b82525050565b6000602082019050611b646000830184611b40565b92915050565b600060208284031215611b8057611b7f61197a565b5b6000611b8e848285016119c8565b91505092915050565b611ba08161199f565b82525050565b6000602082019050611bbb6000830184611b97565b92915050565b60008060408385031215611bd857611bd761197a565b5b6000611be6858286016119c8565b9250506020611bf7858286016119c8565b9150509250929050565b7f4e487b7100000000000000000000000000000000000000000000000000000000600052601160045260246000fd5b6000611c3b826119dd565b9150611c46836119dd565b9250828201905080821115611c5e57611c5d611c01565b5b92915050565b7f4e487b7100000000000000000000000000000000000000000000000000000000600052602260045260246000fd5b60006002820490506001821680611cab57607f821691505b602082108103611cbe57611cbd611c64565b5b50919050565b6000611ccf826119dd565b9150611cda836119dd565b9250828202611ce8816119dd565b91508282048414831517611cff57611cfe611c01565b5b5092915050565b7f45746865722073656e7420697320696e636f7272656374000000000000000000600082015250565b6000611d3c6017836118d3565b9150611d4782611d06565b602082019050919050565b60006020820190508181036000830152611d6b81611d2f565b9050919050565b7f4578636565647320746865206d617820746f74616c20737570706c792061766160008201527f696c61626c652e00000000000000000000000000000000000000000000000000602082015250565b6000611dce6027836118d3565b9150611dd982611d72565b604082019050919050565b60006020820190508181036000830152611dfd81611dc1565b9050919050565b7f596f7520676f74207265776172647320616c7265616479000000000000000000600082015250565b6000611e3a6017836118d3565b9150611e4582611e04565b602082019050919050565b60006020820190508181036000830152611e6981611e2d565b9050919050565b7f45524332303a2064656372656173656420616c6c6f77616e63652062656c6f7760008201527f207a65726f000000000000000000000000000000000000000000000000000000602082015250565b6000611ecc6025836118d3565b9150611ed782611e70565b604082019050919050565b60006020820190508181036000830152611efb81611ebf565b9050919050565b7f4f776e61626c653a206e6577206f776e657220697320746865207a65726f206160008201527f6464726573730000000000000000000000000000000000000000000000000000602082015250565b6000611f5e6026836118d3565b9150611f6982611f02565b604082019050919050565b60006020820190508181036000830152611f8d81611f51565b9050919050565b7f45524332303a206d696e7420746f20746865207a65726f206164647265737300600082015250565b6000611fca601f836118d3565b9150611fd582611f94565b602082019050919050565b60006020820190508181036000830152611ff981611fbd565b9050919050565b7f4f776e61626c653a2063616c6c6572206973206e6f7420746865206f776e6572600082015250565b60006120366020836118d3565b915061204182612000565b602082019050919050565b6000602082019050818103600083015261206581612029565b9050919050565b7f45524332303a206275726e2066726f6d20746865207a65726f2061646472657360008201527f7300000000000000000000000000000000000000000000000000000000000000602082015250565b60006120c86021836118d3565b91506120d38261206c565b604082019050919050565b600060208201905081810360008301526120f7816120bb565b9050919050565b7f45524332303a206275726e20616d6f756e7420657863656564732062616c616e60008201527f6365000000000000000000000000000000000000000000000000000000000000602082015250565b600061215a6022836118d3565b9150612165826120fe565b604082019050919050565b600060208201905081810360008301526121898161214d565b9050919050565b7f45524332303a20617070726f76652066726f6d20746865207a65726f2061646460008201527f7265737300000000000000000000000000000000000000000000000000000000602082015250565b60006121ec6024836118d3565b91506121f782612190565b604082019050919050565b6000602082019050818103600083015261221b816121df565b9050919050565b7f45524332303a20617070726f766520746f20746865207a65726f20616464726560008201527f7373000000000000000000000000000000000000000000000000000000000000602082015250565b600061227e6022836118d3565b915061228982612222565b604082019050919050565b600060208201905081810360008301526122ad81612271565b9050919050565b7f45524332303a20696e73756666696369656e7420616c6c6f77616e6365000000600082015250565b60006122ea601d836118d3565b91506122f5826122b4565b602082019050919050565b60006020820190508181036000830152612319816122dd565b9050919050565b7f45524332303a207472616e736665722066726f6d20746865207a65726f20616460008201527f6472657373000000000000000000000000000000000000000000000000000000602082015250565b600061237c6025836118d3565b915061238782612320565b604082019050919050565b600060208201905081810360008301526123ab8161236f565b9050919050565b7f45524332303a207472616e7366657220746f20746865207a65726f206164647260008201527f6573730000000000000000000000000000000000000000000000000000000000602082015250565b600061240e6023836118d3565b9150612419826123b2565b604082019050919050565b6000602082019050818103600083015261243d81612401565b9050919050565b7f45524332303a207472616e7366657220616d6f756e742065786365656473206260008201527f616c616e63650000000000000000000000000000000000000000000000000000602082015250565b60006124a06026836118d3565b91506124ab82612444565b604082019050919050565b600060208201905081810360008301526124cf81612493565b905091905056fea26469706673582212209b38ce34193b2dae9ad2b106724d6399382d49ca1aca3813c2dbe9e208734b2264736f6c63430008110033",
  "linkReferences": {},
  "deployedLinkReferences": {}
}