{
  "_format": "hh-sol-artifact-1",
  "contractName": "NftContract",
  "sourceName": "contracts/NftContract.sol",
  "abi": [
    {
      "inputs": [],
      "stateMutability": "nonpayable",
      "type": "constructor"
    },
    {
      "anonymous": false,
      "inputs": [
        {
          "indexed": true,
          "internalType": "address",
          "name": "owner",
          "type": "address"
        },
        {
          "indexed": true,
          "internalType": "address",
          "name": "approved",
          "type": "address"
        },
        {
          "indexed": true,
          "internalType": "uint256",
          "name": "tokenId",
          "type": "uint256"
        }
      ],
      "name": "Approval",
      "type": "event"
    },
    {
      "anonymous": false,
      "inputs": [
        {
          "indexed": true,
          "internalType": "address",
          "name": "owner",
          "type": "address"
        },
        {
          "indexed": true,
          "internalType": "address",
          "name": "operator",
          "type": "address"
        },
        {
          "indexed": false,
          "internalType": "bool",
          "name": "approved",
          "type": "bool"
        }
      ],
      "name": "ApprovalForAll",
      "type": "event"
    },
    {
      "anonymous": false,
      "inputs": [
        {
          "indexed": true,
          "internalType": "address",
          "name": "from",
          "type": "address"
        },
        {
          "indexed": true,
          "internalType": "address",
          "name": "to",
          "type": "address"
        },
        {
          "indexed": true,
          "internalType": "uint256",
          "name": "tokenId",
          "type": "uint256"
        }
      ],
      "name": "Transfer",
      "type": "event"
    },
    {
      "inputs": [
        {
          "internalType": "address",
          "name": "",
          "type": "address"
        }
      ],
      "name": "NFTholders",
      "outputs": [
        {
          "internalType": "uint256",
          "name": "",
          "type": "uint256"
        }
      ],
      "stateMutability": "view",
      "type": "function"
    },
    {
      "inputs": [
        {
          "internalType": "uint256",
          "name": "",
          "type": "uint256"
        }
      ],
      "name": "addressOf",
      "outputs": [
        {
          "internalType": "address",
          "name": "",
          "type": "address"
        }
      ],
      "stateMutability": "view",
      "type": "function"
    },
    {
      "inputs": [],
      "name": "approvalRequest",
      "outputs": [],
      "stateMutability": "nonpayable",
      "type": "function"
    },
    {
      "inputs": [
        {
          "internalType": "address",
          "name": "to",
          "type": "address"
        },
        {
          "internalType": "uint256",
          "name": "tokenId",
          "type": "uint256"
        }
      ],
      "name": "approve",
      "outputs": [],
      "stateMutability": "nonpayable",
      "type": "function"
    },
    {
      "inputs": [
        {
          "internalType": "uint256",
          "name": "",
          "type": "uint256"
        }
      ],
      "name": "approvedOnToken",
      "outputs": [
        {
          "internalType": "bool",
          "name": "",
          "type": "bool"
        }
      ],
      "stateMutability": "view",
      "type": "function"
    },
    {
      "inputs": [
        {
          "internalType": "address",
          "name": "owner",
          "type": "address"
        }
      ],
      "name": "balanceOf",
      "outputs": [
        {
          "internalType": "uint256",
          "name": "",
          "type": "uint256"
        }
      ],
      "stateMutability": "view",
      "type": "function"
    },
    {
      "inputs": [
        {
          "internalType": "uint256",
          "name": "",
          "type": "uint256"
        }
      ],
      "name": "codingScores",
      "outputs": [
        {
          "internalType": "uint256",
          "name": "",
          "type": "uint256"
        }
      ],
      "stateMutability": "view",
      "type": "function"
    },
    {
      "inputs": [
        {
          "internalType": "uint256",
          "name": "",
          "type": "uint256"
        }
      ],
      "name": "contestWins",
      "outputs": [
        {
          "internalType": "uint256",
          "name": "",
          "type": "uint256"
        }
      ],
      "stateMutability": "view",
      "type": "function"
    },
    {
      "inputs": [
        {
          "internalType": "uint256",
          "name": "tokenId",
          "type": "uint256"
        }
      ],
      "name": "getApproved",
      "outputs": [
        {
          "internalType": "address",
          "name": "",
          "type": "address"
        }
      ],
      "stateMutability": "view",
      "type": "function"
    },
    {
      "inputs": [
        {
          "internalType": "address",
          "name": "owner",
          "type": "address"
        },
        {
          "internalType": "address",
          "name": "operator",
          "type": "address"
        }
      ],
      "name": "isApprovedForAll",
      "outputs": [
        {
          "internalType": "bool",
          "name": "",
          "type": "bool"
        }
      ],
      "stateMutability": "view",
      "type": "function"
    },
    {
      "inputs": [],
      "name": "name",
      "outputs": [
        {
          "internalType": "string",
          "name": "",
          "type": "string"
        }
      ],
      "stateMutability": "view",
      "type": "function"
    },
    {
      "inputs": [
        {
          "internalType": "uint256",
          "name": "tokenId",
          "type": "uint256"
        }
      ],
      "name": "ownerOf",
      "outputs": [
        {
          "internalType": "address",
          "name": "",
          "type": "address"
        }
      ],
      "stateMutability": "view",
      "type": "function"
    },
    {
      "inputs": [
        {
          "internalType": "uint256",
          "name": "",
          "type": "uint256"
        }
      ],
      "name": "problemSolved",
      "outputs": [
        {
          "internalType": "uint256",
          "name": "",
          "type": "uint256"
        }
      ],
      "stateMutability": "view",
      "type": "function"
    },
    {
      "inputs": [
        {
          "internalType": "address",
          "name": "from",
          "type": "address"
        },
        {
          "internalType": "address",
          "name": "to",
          "type": "address"
        },
        {
          "internalType": "uint256",
          "name": "tokenId",
          "type": "uint256"
        }
      ],
      "name": "safeTransferFrom",
      "outputs": [],
      "stateMutability": "nonpayable",
      "type": "function"
    },
    {
      "inputs": [
        {
          "internalType": "address",
          "name": "from",
          "type": "address"
        },
        {
          "internalType": "address",
          "name": "to",
          "type": "address"
        },
        {
          "internalType": "uint256",
          "name": "tokenId",
          "type": "uint256"
        },
        {
          "internalType": "bytes",
          "name": "data",
          "type": "bytes"
        }
      ],
      "name": "safeTransferFrom",
      "outputs": [],
      "stateMutability": "nonpayable",
      "type": "function"
    },
    {
      "inputs": [
        {
          "internalType": "address",
          "name": "operator",
          "type": "address"
        },
        {
          "internalType": "bool",
          "name": "approved",
          "type": "bool"
        }
      ],
      "name": "setApprovalForAll",
      "outputs": [],
      "stateMutability": "nonpayable",
      "type": "function"
    },
    {
      "inputs": [
        {
          "internalType": "bytes4",
          "name": "interfaceId",
          "type": "bytes4"
        }
      ],
      "name": "supportsInterface",
      "outputs": [
        {
          "internalType": "bool",
          "name": "",
          "type": "bool"
        }
      ],
      "stateMutability": "view",
      "type": "function"
    },
    {
      "inputs": [],
      "name": "symbol",
      "outputs": [
        {
          "internalType": "string",
          "name": "",
          "type": "string"
        }
      ],
      "stateMutability": "view",
      "type": "function"
    },
    {
      "inputs": [],
      "name": "tokenSend",
      "outputs": [],
      "stateMutability": "nonpayable",
      "type": "function"
    },
    {
      "inputs": [
        {
          "internalType": "uint256",
          "name": "_tokenId",
          "type": "uint256"
        }
      ],
      "name": "tokenURI",
      "outputs": [
        {
          "internalType": "string",
          "name": "",
          "type": "string"
        }
      ],
      "stateMutability": "view",
      "type": "function"
    },
    {
      "inputs": [
        {
          "internalType": "address",
          "name": "from",
          "type": "address"
        },
        {
          "internalType": "address",
          "name": "to",
          "type": "address"
        },
        {
          "internalType": "uint256",
          "name": "tokenId",
          "type": "uint256"
        }
      ],
      "name": "transferFrom",
      "outputs": [],
      "stateMutability": "nonpayable",
      "type": "function"
    },
    {
      "inputs": [],
      "name": "updateContestWins",
      "outputs": [],
      "stateMutability": "nonpayable",
      "type": "function"
    },
    {
      "inputs": [],
      "name": "updateProblemSolved",
      "outputs": [],
      "stateMutability": "nonpayable",
      "type": "function"
    }
  ],
  "bytecode": "0x60806040526001600d553480156200001657600080fd5b506040518060400160405280600681526020017f5765436f646500000000000000000000000000000000000000000000000000008152506040518060400160405280600381526020017f5643440000000000000000000000000000000000000000000000000000000000815250816000908162000094919062000397565b508060019081620000a6919062000397565b505050620000c060066200010760201b6200118c1760201c565b33600e60006101000a81548173ffffffffffffffffffffffffffffffffffffffff021916908373ffffffffffffffffffffffffffffffffffffffff1602179055506200047e565b6001816000016000828254019250508190555050565b600081519050919050565b7f4e487b7100000000000000000000000000000000000000000000000000000000600052604160045260246000fd5b7f4e487b7100000000000000000000000000000000000000000000000000000000600052602260045260246000fd5b600060028204905060018216806200019f57607f821691505b602082108103620001b557620001b462000157565b5b50919050565b60008190508160005260206000209050919050565b60006020601f8301049050919050565b600082821b905092915050565b6000600883026200021f7fffffffffffffffffffffffffffffffffffffffffffffffffffffffffffffffff82620001e0565b6200022b8683620001e0565b95508019841693508086168417925050509392505050565b6000819050919050565b6000819050919050565b600062000278620002726200026c8462000243565b6200024d565b62000243565b9050919050565b6000819050919050565b620002948362000257565b620002ac620002a3826200027f565b848454620001ed565b825550505050565b600090565b620002c3620002b4565b620002d081848462000289565b505050565b5b81811015620002f857620002ec600082620002b9565b600181019050620002d6565b5050565b601f82111562000347576200031181620001bb565b6200031c84620001d0565b810160208510156200032c578190505b620003446200033b85620001d0565b830182620002d5565b50505b505050565b600082821c905092915050565b60006200036c600019846008026200034c565b1980831691505092915050565b600062000387838362000359565b9150826002028217905092915050565b620003a2826200011d565b67ffffffffffffffff811115620003be57620003bd62000128565b5b620003ca825462000186565b620003d7828285620002fc565b600060209050601f8311600181146200040f5760008415620003fa578287015190505b62000406858262000379565b86555062000476565b601f1984166200041f86620001bb565b60005b82811015620004495784890151825560018201915060208501945060208101905062000422565b8683101562000469578489015162000465601f89168262000359565b8355505b6001600288020188555050505b505050505050565b613545806200048e6000396000f3fe608060405234801561001057600080fd5b506004361061014d5760003560e01c80636352211e116100c3578063c87b56dd1161007c578063c87b56dd14610362578063d705ce2914610392578063e70224c6146103c2578063e985e9c5146103f2578063fd25de5614610422578063fd3a2cb1146104525761014d565b80636352211e1461027c5780636842e3c8146102ac57806370a08231146102dc57806395d89b411461030c578063a22cb4651461032a578063b88d4fde146103465761014d565b806311a800bc1161011557806311a800bc146101f6578063158421d41461022657806315ed30c11461023057806323b872dd1461023a57806342842e0e146102565780635e7f9235146102725761014d565b806301ffc9a71461015257806305d9d04c1461018257806306fdde031461018c578063081812fc146101aa578063095ea7b3146101da575b600080fd5b61016c6004803603810190610167919061228a565b610482565b60405161017991906122d2565b60405180910390f35b61018a610564565b005b6101946105d6565b6040516101a1919061237d565b60405180910390f35b6101c460048036038101906101bf91906123d5565b610668565b6040516101d19190612443565b60405180910390f35b6101f460048036038101906101ef919061248a565b6106ae565b005b610210600480360381019061020b91906123d5565b6107c5565b60405161021d9190612443565b60405180910390f35b61022e6107f8565b005b61023861097e565b005b610254600480360381019061024f91906124ca565b610aa6565b005b610270600480360381019061026b91906124ca565b610b06565b005b61027a610b26565b005b610296600480360381019061029191906123d5565b610bc3565b6040516102a39190612443565b60405180910390f35b6102c660048036038101906102c1919061251d565b610c49565b6040516102d39190612559565b60405180910390f35b6102f660048036038101906102f1919061251d565b610c61565b6040516103039190612559565b60405180910390f35b610314610d18565b604051610321919061237d565b60405180910390f35b610344600480360381019061033f91906125a0565b610daa565b005b610360600480360381019061035b9190612715565b610dc0565b005b61037c600480360381019061037791906123d5565b610e22565b604051610389919061237d565b60405180910390f35b6103ac60048036038101906103a791906123d5565b611090565b6040516103b99190612559565b60405180910390f35b6103dc60048036038101906103d791906123d5565b6110a8565b6040516103e991906122d2565b60405180910390f35b61040c60048036038101906104079190612798565b6110c8565b60405161041991906122d2565b60405180910390f35b61043c600480360381019061043791906123d5565b61115c565b6040516104499190612559565b60405180910390f35b61046c600480360381019061046791906123d5565b611174565b6040516104799190612559565b60405180910390f35b60007f80ac58cd000000000000000000000000000000000000000000000000000000007bffffffffffffffffffffffffffffffffffffffffffffffffffffffff1916827bffffffffffffffffffffffffffffffffffffffffffffffffffffffff1916148061054d57507f5b5e139f000000000000000000000000000000000000000000000000000000007bffffffffffffffffffffffffffffffffffffffffffffffffffffffff1916827bffffffffffffffffffffffffffffffffffffffffffffffffffffffff1916145b8061055d575061055c826111a2565b5b9050919050565b6000600760003373ffffffffffffffffffffffffffffffffffffffff1673ffffffffffffffffffffffffffffffffffffffff1681526020019081526020016000205490506001600a600083815260200190815260200160002060008282546105cc9190612807565b9250508190555050565b6060600080546105e59061286a565b80601f01602080910402602001604051908101604052809291908181526020018280546106119061286a565b801561065e5780601f106106335761010080835404028352916020019161065e565b820191906000526020600020905b81548152906001019060200180831161064157829003601f168201915b5050505050905090565b60006106738261120c565b6004600083815260200190815260200160002060009054906101000a900473ffffffffffffffffffffffffffffffffffffffff169050919050565b60006106b982610bc3565b90508073ffffffffffffffffffffffffffffffffffffffff168373ffffffffffffffffffffffffffffffffffffffff1603610729576040517f08c379a00000000000000000000000000000000000000000000000000000000081526004016107209061290d565b60405180910390fd5b8073ffffffffffffffffffffffffffffffffffffffff16610748611257565b73ffffffffffffffffffffffffffffffffffffffff161480610777575061077681610771611257565b6110c8565b5b6107b6576040517f08c379a00000000000000000000000000000000000000000000000000000000081526004016107ad9061299f565b60405180910390fd5b6107c0838361125f565b505050565b600c6020528060005260406000206000915054906101000a900473ffffffffffffffffffffffffffffffffffffffff1681565b600e60009054906101000a900473ffffffffffffffffffffffffffffffffffffffff1673ffffffffffffffffffffffffffffffffffffffff163373ffffffffffffffffffffffffffffffffffffffff161461085257600080fd5b6000600d5490505b6108646006611318565b8110156109745760001515600b600083815260200190815260200160002060009054906101000a900460ff16151503610961576108d4600c600083815260200190815260200160002060009054906101000a900473ffffffffffffffffffffffffffffffffffffffff16826106ae565b610934600e60009054906101000a900473ffffffffffffffffffffffffffffffffffffffff16600c600084815260200190815260200160002060009054906101000a900473ffffffffffffffffffffffffffffffffffffffff1683610aa6565b6001600b600083815260200190815260200160002060006101000a81548160ff0219169083151502179055505b808061096c906129bf565b91505061085a565b80600d8190555050565b600061098a6006611318565b90506109b8600e60009054906101000a900473ffffffffffffffffffffffffffffffffffffffff1682611326565b600060086000838152602001908152602001600020819055506000600a6000838152602001908152602001600020819055506000600960008381526020019081526020016000208190555080600760003373ffffffffffffffffffffffffffffffffffffffff1673ffffffffffffffffffffffffffffffffffffffff1681526020019081526020016000208190555033600c600083815260200190815260200160002060006101000a81548173ffffffffffffffffffffffffffffffffffffffff021916908373ffffffffffffffffffffffffffffffffffffffff160217905550610aa3600661118c565b50565b610ab7610ab1611257565b82611344565b610af6576040517f08c379a0000000000000000000000000000000000000000000000000000000008152600401610aed90612a79565b60405180910390fd5b610b018383836113d9565b505050565b610b2183838360405180602001604052806000815250610dc0565b505050565b6000600760003373ffffffffffffffffffffffffffffffffffffffff1673ffffffffffffffffffffffffffffffffffffffff1681526020019081526020016000205490506001600960008381526020019081526020016000206000828254610b8e9190612807565b925050819055506004600860008381526020019081526020016000206000828254610bb99190612807565b9250508190555050565b600080610bcf836116d2565b9050600073ffffffffffffffffffffffffffffffffffffffff168173ffffffffffffffffffffffffffffffffffffffff1603610c40576040517f08c379a0000000000000000000000000000000000000000000000000000000008152600401610c3790612ae5565b60405180910390fd5b80915050919050565b60076020528060005260406000206000915090505481565b60008073ffffffffffffffffffffffffffffffffffffffff168273ffffffffffffffffffffffffffffffffffffffff1603610cd1576040517f08c379a0000000000000000000000000000000000000000000000000000000008152600401610cc890612b77565b60405180910390fd5b600360008373ffffffffffffffffffffffffffffffffffffffff1673ffffffffffffffffffffffffffffffffffffffff168152602001908152602001600020549050919050565b606060018054610d279061286a565b80601f0160208091040260200160405190810160405280929190818152602001828054610d539061286a565b8015610da05780601f10610d7557610100808354040283529160200191610da0565b820191906000526020600020905b815481529060010190602001808311610d8357829003601f168201915b5050505050905090565b610dbc610db5611257565b838361170f565b5050565b610dd1610dcb611257565b83611344565b610e10576040517f08c379a0000000000000000000000000000000000000000000000000000000008152600401610e0790612a79565b60405180910390fd5b610e1c8484848461187b565b50505050565b606060006040518060400160405280600881526020017f56436f646572202300000000000000000000000000000000000000000000000081525090506000610e69846118d7565b90508181604051602001610e7e929190612bd3565b6040516020818303038152906040529150606060006040518060600160405280604081526020016134906040913990508083604051602001610ec1929190612bd3565b604051602081830303815290604052915060018603610f3e5760006040518060400160405280600581526020017f2e6a70656700000000000000000000000000000000000000000000000000000081525090508281604051602001610f27929190612bd3565b604051602081830303815290604052925050610f9e565b60006040518060400160405280600481526020017f2e6a70670000000000000000000000000000000000000000000000000000000081525090508281604051602001610f8b929190612bd3565b6040516020818303038152906040529250505b6000610fbc60096000898152602001908152602001600020546118d7565b90506000610fdc600860008a8152602001908152602001600020546118d7565b90506000610ffc600a60008b8152602001908152602001600020546118d7565b9050600061100b61026b6118d7565b9050600061101960646118d7565b905060006110578a61102a8e6118d7565b8a88878b60405160200161104396959493929190612ec9565b6040516020818303038152906040526119a5565b905060008160405160200161106c9190612fba565b6040516020818303038152906040529050809b505050505050505050505050919050565b60086020528060005260406000206000915090505481565b600b6020528060005260406000206000915054906101000a900460ff1681565b6000600560008473ffffffffffffffffffffffffffffffffffffffff1673ffffffffffffffffffffffffffffffffffffffff16815260200190815260200160002060008373ffffffffffffffffffffffffffffffffffffffff1673ffffffffffffffffffffffffffffffffffffffff16815260200190815260200160002060009054906101000a900460ff16905092915050565b60096020528060005260406000206000915090505481565b600a6020528060005260406000206000915090505481565b6001816000016000828254019250508190555050565b60007f01ffc9a7000000000000000000000000000000000000000000000000000000007bffffffffffffffffffffffffffffffffffffffffffffffffffffffff1916827bffffffffffffffffffffffffffffffffffffffffffffffffffffffff1916149050919050565b61121581611b3c565b611254576040517f08c379a000000000000000000000000000000000000000000000000000000000815260040161124b90612ae5565b60405180910390fd5b50565b600033905090565b816004600083815260200190815260200160002060006101000a81548173ffffffffffffffffffffffffffffffffffffffff021916908373ffffffffffffffffffffffffffffffffffffffff160217905550808273ffffffffffffffffffffffffffffffffffffffff166112d283610bc3565b73ffffffffffffffffffffffffffffffffffffffff167f8c5be1e5ebec7d5bd14f71427d1e84f3dd0314c0f7b2291e5b200ac8c7c3b92560405160405180910390a45050565b600081600001549050919050565b611340828260405180602001604052806000815250611b7d565b5050565b60008061135083610bc3565b90508073ffffffffffffffffffffffffffffffffffffffff168473ffffffffffffffffffffffffffffffffffffffff161480611392575061139181856110c8565b5b806113d057508373ffffffffffffffffffffffffffffffffffffffff166113b884610668565b73ffffffffffffffffffffffffffffffffffffffff16145b91505092915050565b8273ffffffffffffffffffffffffffffffffffffffff166113f982610bc3565b73ffffffffffffffffffffffffffffffffffffffff161461144f576040517f08c379a00000000000000000000000000000000000000000000000000000000081526004016114469061304e565b60405180910390fd5b600073ffffffffffffffffffffffffffffffffffffffff168273ffffffffffffffffffffffffffffffffffffffff16036114be576040517f08c379a00000000000000000000000000000000000000000000000000000000081526004016114b5906130e0565b60405180910390fd5b6114cb8383836001611bd8565b8273ffffffffffffffffffffffffffffffffffffffff166114eb82610bc3565b73ffffffffffffffffffffffffffffffffffffffff1614611541576040517f08c379a00000000000000000000000000000000000000000000000000000000081526004016115389061304e565b60405180910390fd5b6004600082815260200190815260200160002060006101000a81549073ffffffffffffffffffffffffffffffffffffffff02191690556001600360008573ffffffffffffffffffffffffffffffffffffffff1673ffffffffffffffffffffffffffffffffffffffff168152602001908152602001600020600082825403925050819055506001600360008473ffffffffffffffffffffffffffffffffffffffff1673ffffffffffffffffffffffffffffffffffffffff16815260200190815260200160002060008282540192505081905550816002600083815260200190815260200160002060006101000a81548173ffffffffffffffffffffffffffffffffffffffff021916908373ffffffffffffffffffffffffffffffffffffffff160217905550808273ffffffffffffffffffffffffffffffffffffffff168473ffffffffffffffffffffffffffffffffffffffff167fddf252ad1be2c89b69c2b068fc378daa952ba7f163c4a11628f55a4df523b3ef60405160405180910390a46116cd8383836001611cfe565b505050565b60006002600083815260200190815260200160002060009054906101000a900473ffffffffffffffffffffffffffffffffffffffff169050919050565b8173ffffffffffffffffffffffffffffffffffffffff168373ffffffffffffffffffffffffffffffffffffffff160361177d576040517f08c379a00000000000000000000000000000000000000000000000000000000081526004016117749061314c565b60405180910390fd5b80600560008573ffffffffffffffffffffffffffffffffffffffff1673ffffffffffffffffffffffffffffffffffffffff16815260200190815260200160002060008473ffffffffffffffffffffffffffffffffffffffff1673ffffffffffffffffffffffffffffffffffffffff16815260200190815260200160002060006101000a81548160ff0219169083151502179055508173ffffffffffffffffffffffffffffffffffffffff168373ffffffffffffffffffffffffffffffffffffffff167f17307eab39ab6107e8899845ad3d59bd9653f200f220920489ca2b5937696c318360405161186e91906122d2565b60405180910390a3505050565b6118868484846113d9565b61189284848484611d04565b6118d1576040517f08c379a00000000000000000000000000000000000000000000000000000000081526004016118c8906131de565b60405180910390fd5b50505050565b6060600060016118e684611e8b565b01905060008167ffffffffffffffff811115611905576119046125ea565b5b6040519080825280601f01601f1916602001820160405280156119375781602001600182028036833780820191505090505b509050600082602001820190505b60011561199a578080600190039150507f3031323334353637383961626364656600000000000000000000000000000000600a86061a8153600a858161198e5761198d6131fe565b5b04945060008503611945575b819350505050919050565b6060600082519050600081036119cd5760405180602001604052806000815250915050611b37565b600060036002836119de9190612807565b6119e8919061322d565b60046119f4919061325e565b90506000602082611a059190612807565b67ffffffffffffffff811115611a1e57611a1d6125ea565b5b6040519080825280601f01601f191660200182016040528015611a505781602001600182028036833780820191505090505b50905060006040518060600160405280604081526020016134d0604091399050600181016020830160005b86811015611af45760038101905062ffffff818a015116603f8160121c168401518060081b905060ff603f83600c1c1686015116810190508060081b905060ff603f8360061c1686015116810190508060081b905060ff603f831686015116810190508060e01b90508084526004840193505050611a7b565b506003860660018114611b0e5760028114611b1e57611b29565b613d3d60f01b6002830352611b29565b603d60f81b60018303525b508484525050819450505050505b919050565b60008073ffffffffffffffffffffffffffffffffffffffff16611b5e836116d2565b73ffffffffffffffffffffffffffffffffffffffff1614159050919050565b611b878383611fde565b611b946000848484611d04565b611bd3576040517f08c379a0000000000000000000000000000000000000000000000000000000008152600401611bca906131de565b60405180910390fd5b505050565b6001811115611cf857600073ffffffffffffffffffffffffffffffffffffffff168473ffffffffffffffffffffffffffffffffffffffff1614611c6c5780600360008673ffffffffffffffffffffffffffffffffffffffff1673ffffffffffffffffffffffffffffffffffffffff1681526020019081526020016000206000828254611c6491906132a0565b925050819055505b600073ffffffffffffffffffffffffffffffffffffffff168373ffffffffffffffffffffffffffffffffffffffff1614611cf75780600360008573ffffffffffffffffffffffffffffffffffffffff1673ffffffffffffffffffffffffffffffffffffffff1681526020019081526020016000206000828254611cef9190612807565b925050819055505b5b50505050565b50505050565b6000611d258473ffffffffffffffffffffffffffffffffffffffff166121fb565b15611e7e578373ffffffffffffffffffffffffffffffffffffffff1663150b7a02611d4e611257565b8786866040518563ffffffff1660e01b8152600401611d709493929190613329565b6020604051808303816000875af1925050508015611dac57506040513d601f19601f82011682018060405250810190611da9919061338a565b60015b611e2e573d8060008114611ddc576040519150601f19603f3d011682016040523d82523d6000602084013e611de1565b606091505b506000815103611e26576040517f08c379a0000000000000000000000000000000000000000000000000000000008152600401611e1d906131de565b60405180910390fd5b805181602001fd5b63150b7a0260e01b7bffffffffffffffffffffffffffffffffffffffffffffffffffffffff1916817bffffffffffffffffffffffffffffffffffffffffffffffffffffffff191614915050611e83565b600190505b949350505050565b600080600090507a184f03e93ff9f4daa797ed6e38ed64bf6a1f0100000000000000008310611ee9577a184f03e93ff9f4daa797ed6e38ed64bf6a1f0100000000000000008381611edf57611ede6131fe565b5b0492506040810190505b6d04ee2d6d415b85acef81000000008310611f26576d04ee2d6d415b85acef81000000008381611f1c57611f1b6131fe565b5b0492506020810190505b662386f26fc100008310611f5557662386f26fc100008381611f4b57611f4a6131fe565b5b0492506010810190505b6305f5e1008310611f7e576305f5e1008381611f7457611f736131fe565b5b0492506008810190505b6127108310611fa3576127108381611f9957611f986131fe565b5b0492506004810190505b60648310611fc65760648381611fbc57611fbb6131fe565b5b0492506002810190505b600a8310611fd5576001810190505b80915050919050565b600073ffffffffffffffffffffffffffffffffffffffff168273ffffffffffffffffffffffffffffffffffffffff160361204d576040517f08c379a000000000000000000000000000000000000000000000000000000000815260040161204490613403565b60405180910390fd5b61205681611b3c565b15612096576040517f08c379a000000000000000000000000000000000000000000000000000000000815260040161208d9061346f565b60405180910390fd5b6120a4600083836001611bd8565b6120ad81611b3c565b156120ed576040517f08c379a00000000000000000000000000000000000000000000000000000000081526004016120e49061346f565b60405180910390fd5b6001600360008473ffffffffffffffffffffffffffffffffffffffff1673ffffffffffffffffffffffffffffffffffffffff16815260200190815260200160002060008282540192505081905550816002600083815260200190815260200160002060006101000a81548173ffffffffffffffffffffffffffffffffffffffff021916908373ffffffffffffffffffffffffffffffffffffffff160217905550808273ffffffffffffffffffffffffffffffffffffffff16600073ffffffffffffffffffffffffffffffffffffffff167fddf252ad1be2c89b69c2b068fc378daa952ba7f163c4a11628f55a4df523b3ef60405160405180910390a46121f7600083836001611cfe565b5050565b6000808273ffffffffffffffffffffffffffffffffffffffff163b119050919050565b6000604051905090565b600080fd5b600080fd5b60007fffffffff0000000000000000000000000000000000000000000000000000000082169050919050565b61226781612232565b811461227257600080fd5b50565b6000813590506122848161225e565b92915050565b6000602082840312156122a05761229f612228565b5b60006122ae84828501612275565b91505092915050565b60008115159050919050565b6122cc816122b7565b82525050565b60006020820190506122e760008301846122c3565b92915050565b600081519050919050565b600082825260208201905092915050565b60005b8381101561232757808201518184015260208101905061230c565b60008484015250505050565b6000601f19601f8301169050919050565b600061234f826122ed565b61235981856122f8565b9350612369818560208601612309565b61237281612333565b840191505092915050565b600060208201905081810360008301526123978184612344565b905092915050565b6000819050919050565b6123b28161239f565b81146123bd57600080fd5b50565b6000813590506123cf816123a9565b92915050565b6000602082840312156123eb576123ea612228565b5b60006123f9848285016123c0565b91505092915050565b600073ffffffffffffffffffffffffffffffffffffffff82169050919050565b600061242d82612402565b9050919050565b61243d81612422565b82525050565b60006020820190506124586000830184612434565b92915050565b61246781612422565b811461247257600080fd5b50565b6000813590506124848161245e565b92915050565b600080604083850312156124a1576124a0612228565b5b60006124af85828601612475565b92505060206124c0858286016123c0565b9150509250929050565b6000806000606084860312156124e3576124e2612228565b5b60006124f186828701612475565b935050602061250286828701612475565b9250506040612513868287016123c0565b9150509250925092565b60006020828403121561253357612532612228565b5b600061254184828501612475565b91505092915050565b6125538161239f565b82525050565b600060208201905061256e600083018461254a565b92915050565b61257d816122b7565b811461258857600080fd5b50565b60008135905061259a81612574565b92915050565b600080604083850312156125b7576125b6612228565b5b60006125c585828601612475565b92505060206125d68582860161258b565b9150509250929050565b600080fd5b600080fd5b7f4e487b7100000000000000000000000000000000000000000000000000000000600052604160045260246000fd5b61262282612333565b810181811067ffffffffffffffff82111715612641576126406125ea565b5b80604052505050565b600061265461221e565b90506126608282612619565b919050565b600067ffffffffffffffff8211156126805761267f6125ea565b5b61268982612333565b9050602081019050919050565b82818337600083830152505050565b60006126b86126b384612665565b61264a565b9050828152602081018484840111156126d4576126d36125e5565b5b6126df848285612696565b509392505050565b600082601f8301126126fc576126fb6125e0565b5b813561270c8482602086016126a5565b91505092915050565b6000806000806080858703121561272f5761272e612228565b5b600061273d87828801612475565b945050602061274e87828801612475565b935050604061275f878288016123c0565b925050606085013567ffffffffffffffff8111156127805761277f61222d565b5b61278c878288016126e7565b91505092959194509250565b600080604083850312156127af576127ae612228565b5b60006127bd85828601612475565b92505060206127ce85828601612475565b9150509250929050565b7f4e487b7100000000000000000000000000000000000000000000000000000000600052601160045260246000fd5b60006128128261239f565b915061281d8361239f565b9250828201905080821115612835576128346127d8565b5b92915050565b7f4e487b7100000000000000000000000000000000000000000000000000000000600052602260045260246000fd5b6000600282049050600182168061288257607f821691505b6020821081036128955761289461283b565b5b50919050565b7f4552433732313a20617070726f76616c20746f2063757272656e74206f776e6560008201527f7200000000000000000000000000000000000000000000000000000000000000602082015250565b60006128f76021836122f8565b91506129028261289b565b604082019050919050565b60006020820190508181036000830152612926816128ea565b9050919050565b7f4552433732313a20617070726f76652063616c6c6572206973206e6f7420746f60008201527f6b656e206f776e6572206f7220617070726f76656420666f7220616c6c000000602082015250565b6000612989603d836122f8565b91506129948261292d565b604082019050919050565b600060208201905081810360008301526129b88161297c565b9050919050565b60006129ca8261239f565b91507fffffffffffffffffffffffffffffffffffffffffffffffffffffffffffffffff82036129fc576129fb6127d8565b5b600182019050919050565b7f4552433732313a2063616c6c6572206973206e6f7420746f6b656e206f776e6560008201527f72206f7220617070726f76656400000000000000000000000000000000000000602082015250565b6000612a63602d836122f8565b9150612a6e82612a07565b604082019050919050565b60006020820190508181036000830152612a9281612a56565b9050919050565b7f4552433732313a20696e76616c696420746f6b656e2049440000000000000000600082015250565b6000612acf6018836122f8565b9150612ada82612a99565b602082019050919050565b60006020820190508181036000830152612afe81612ac2565b9050919050565b7f4552433732313a2061646472657373207a65726f206973206e6f74206120766160008201527f6c6964206f776e65720000000000000000000000000000000000000000000000602082015250565b6000612b616029836122f8565b9150612b6c82612b05565b604082019050919050565b60006020820190508181036000830152612b9081612b54565b9050919050565b600081905092915050565b6000612bad826122ed565b612bb78185612b97565b9350612bc7818560208601612309565b80840191505092915050565b6000612bdf8285612ba2565b9150612beb8284612ba2565b91508190509392505050565b7f7b226e616d65223a202200000000000000000000000000000000000000000000600082015250565b6000612c2d600a83612b97565b9150612c3882612bf7565b600a82019050919050565b7f202d2d204e465420233a20000000000000000000000000000000000000000000600082015250565b6000612c79600b83612b97565b9150612c8482612c43565b600b82019050919050565b7f222c20226465736372697074696f6e223a2022546865204e465420446570696360008201527f747320796f7572206469676974616c20696d6167652c204d6f72652077696c6c60208201527f2062652074686520776f726b206d6f72652077696c6c2062652069747320626560408201527f636f6d65205265617221222c2022696d616765223a2022000000000000000000606082015250565b6000612d37607783612b97565b9150612d4282612c8f565b607782019050919050565b7f222c202261747472696275746573223a205b207b202274726169745f7479706560008201527f223a202250726f626c656d2053636f7265222c202276616c7565223a20000000602082015250565b6000612da9603d83612b97565b9150612db482612d4d565b603d82019050919050565b7f2c20226d61785f76616c7565223a000000000000000000000000000000000000600082015250565b6000612df5600e83612b97565b9150612e0082612dbf565b600e82019050919050565b7f7d2c207b202274726169745f74797065223a202250726f626c656d20536f6c7660008201527f6564222c202276616c7565223a20000000000000000000000000000000000000602082015250565b6000612e67602e83612b97565b9150612e7282612e0b565b602e82019050919050565b7f7d205d7d00000000000000000000000000000000000000000000000000000000600082015250565b6000612eb3600483612b97565b9150612ebe82612e7d565b600482019050919050565b6000612ed482612c20565b9150612ee08289612ba2565b9150612eeb82612c6c565b9150612ef78288612ba2565b9150612f0282612d2a565b9150612f0e8287612ba2565b9150612f1982612d9c565b9150612f258286612ba2565b9150612f3082612de8565b9150612f3c8285612ba2565b9150612f4782612e5a565b9150612f538284612ba2565b9150612f5e82612ea6565b9150819050979650505050505050565b7f646174613a6170706c69636174696f6e2f6a736f6e3b6261736536342c000000600082015250565b6000612fa4601d83612b97565b9150612faf82612f6e565b601d82019050919050565b6000612fc582612f97565b9150612fd18284612ba2565b915081905092915050565b7f4552433732313a207472616e736665722066726f6d20696e636f72726563742060008201527f6f776e6572000000000000000000000000000000000000000000000000000000602082015250565b60006130386025836122f8565b915061304382612fdc565b604082019050919050565b600060208201905081810360008301526130678161302b565b9050919050565b7f4552433732313a207472616e7366657220746f20746865207a65726f2061646460008201527f7265737300000000000000000000000000000000000000000000000000000000602082015250565b60006130ca6024836122f8565b91506130d58261306e565b604082019050919050565b600060208201905081810360008301526130f9816130bd565b9050919050565b7f4552433732313a20617070726f766520746f2063616c6c657200000000000000600082015250565b60006131366019836122f8565b915061314182613100565b602082019050919050565b6000602082019050818103600083015261316581613129565b9050919050565b7f4552433732313a207472616e7366657220746f206e6f6e20455243373231526560008201527f63656976657220696d706c656d656e7465720000000000000000000000000000602082015250565b60006131c86032836122f8565b91506131d38261316c565b604082019050919050565b600060208201905081810360008301526131f7816131bb565b9050919050565b7f4e487b7100000000000000000000000000000000000000000000000000000000600052601260045260246000fd5b60006132388261239f565b91506132438361239f565b925082613253576132526131fe565b5b828204905092915050565b60006132698261239f565b91506132748361239f565b92508282026132828161239f565b91508282048414831517613299576132986127d8565b5b5092915050565b60006132ab8261239f565b91506132b68361239f565b92508282039050818111156132ce576132cd6127d8565b5b92915050565b600081519050919050565b600082825260208201905092915050565b60006132fb826132d4565b61330581856132df565b9350613315818560208601612309565b61331e81612333565b840191505092915050565b600060808201905061333e6000830187612434565b61334b6020830186612434565b613358604083018561254a565b818103606083015261336a81846132f0565b905095945050505050565b6000815190506133848161225e565b92915050565b6000602082840312156133a05761339f612228565b5b60006133ae84828501613375565b91505092915050565b7f4552433732313a206d696e7420746f20746865207a65726f2061646472657373600082015250565b60006133ed6020836122f8565b91506133f8826133b7565b602082019050919050565b6000602082019050818103600083015261341c816133e0565b9050919050565b7f4552433732313a20746f6b656e20616c7265616479206d696e74656400000000600082015250565b6000613459601c836122f8565b915061346482613423565b602082019050919050565b600060208201905081810360008301526134888161344c565b905091905056fe68747470733a2f2f7261772e67697468756275736572636f6e74656e742e636f6d2f6376616e67392f4e66742d496d616765732f6d61696e2f496d616765732f4142434445464748494a4b4c4d4e4f505152535455565758595a6162636465666768696a6b6c6d6e6f707172737475767778797a303132333435363738392b2fa2646970667358221220f60e239e196932f93ca0e5cced07f41a2e4d0533e5d87a5a342899c44029535664736f6c63430008110033",
  "linkReferences": {},
  "deployedLinkReferences": {}
}